:020000040800F2
:1000000028110020650100085B2A0008252300084C
:10001000592A0008E1090008BF4500080000000057
:10002000000000000000000000000000312C00086B
:10003000650A000800000000092B0008332C0008A6
:100040007F0100087F0100087F0100087F01000890
:100050007F0100087F0100087F0100087F01000880
:100060007F0100087F0100087F0100087F01000870
:100070007F0100087F0100087F0100087F01000860
:100080007F0100087F0100087F0100087F01000850
:100090007F0100087F0100087F0100087F01000840
:1000A0007F0100087F0100087F0100087F01000830
:1000B0007F0100087F0100087F0100087F01000820
:1000C0007F0100087F0100087F0100087F01000810
:1000D0007F0100087F0100087F0100087F01000800
:1000E0007F0100087F0100087F0100080000000078
:1000F0000000000000000000000000000000000000
:1001000000000000000000007F0100087F010008DF
:100110007F0100087F010008092D00087F01000809
:100120007F0100087F0100087F0100087F010008AF
:100130007F01000800000000000000007F010008AF
:100140007F0100087F0100087F0100087D2A000868
:10015000DFF80CD000F098FB00480047C54E0008BF
:10016000281100200648804706480047FEE7FEE7C2
:10017000FEE7FEE7FEE7FEE7FEE7FEE7FEE7FEE757
:10018000B52C0008510100082DE9F05F054600205C
:1001900092469B4688460646814640241BE02846F8
:1001A00041464746224600F020F853465A46C01AB8
:1001B000914110D311461846224600F067F92D1AD6
:1001C00067EB01084F4622460120002100F05EF94E
:1001D00017EB00094E41201EA4F10104DFDC484664
:1001E00031462A464346BDE8F09F202A04DB203AE8
:1001F00021FA02F00021704721FA02F3D040C2F147
:100200002002914008431946704740EA01039B07CA
:1002100003D009E008C9121F08C0042AFAD203E07B
:1002200011F8013B00F8013B521EF9D27047D2B2DF
:1002300001E000F8012B491EFBD270470022F6E7CF
:1002400010B513460A4604461946FFF7F0FF20464C
:1002500010BD421C10F8011B0029FBD1801A704709
:10026000F0B480EA0102D40F4200B2EB410F02D297
:100270000246084611464A0042D0C30DDDB2C1F322
:10028000C752AD1A202D35DAC1F3160141F4000230
:1002900004B15242C5F1200602FA06F12A41104487
:1002A000B3EBD05F23D0C4B1012DA0EBC35009DC68
:1002B000F0BC4FF0004202EAC352DBB200F500008E
:1002C00000F0FCB8400000F1807000EBC350A0F1DA
:1002D000807040EAD170490009E0490841EAC071E4
:1002E000A0EBC35000F50000400800EBC350F0BC89
:1002F00000F0DBB86142012202EB4101001BF6E78E
:10030000F0BC704781F00041AAE780F00040A7E709
:1003100080EA010210B502F00043400022D04A00FA
:100320001FD0010E01EB1261C0F35600C2F356025A
:1003300040F4000042F40002A0FB022000047F39D8
:10034000140400D0401C50EA124001D44000491E61
:10035000C2B20C0604EBD010401C4008802A02D028
:1003600003E0002010BD20F00100002900DA002089
:10037000184310BD30B480EA010202F0004530F0AD
:10038000004221F0004013D090B1C30DD40DC2F350
:100390001601C0F31600E41A41F4000140F4000213
:1003A0007D34914201D3641C00E04900002C02DA44
:1003B00030BC002070474FF400000023914201D36D
:1003C000891A034340084FEA4101F7D151B19142E4
:1003D00002D14FF0004105E002D24FF0010101E0EF
:1003E0006FF0010103EBC450284430BC00F05DB84D
:1003F000420005D0C0F3C7525242914201DC0020B6
:10040000704700EBC150704796230022114600F060
:1004100055B800F0004230F000400AD0C10D01F59F
:100420006071C0F3160042EA0151C208400711434F
:100430007047002001467047002801DBC0F10040F2
:10044000002901DBC1F1004181427047002801DB36
:10045000C0F10040002901DBC1F100418842704732
:1004600030B50B46014600202022012409E021FA84
:1004700002F59D4205D303FA02F5491B04FA02F581
:100480002844151EA2F10102F1DC30BD202A04DB54
:10049000203A00FA02F1002070479140C2F1200397
:1004A00020FA03F31943904070470029A8BF704712
:1004B000401C490008BF20F00100704710B4B0FA9A
:1004C00080FC00FA0CF050EA010404BF10BC704735
:1004D00049B1CCF1200421FA04F411FA0CF118BF4F
:1004E000012121430843A3EB0C01CB1D4FEA00611E
:1004F0004FEA102042BF002010BC704700EBC350F1
:1005000010440029A4BF10BC7047401C490008BF1C
:1005100020F0010010BC70472DE9FE4F804681EAB3
:100520000300C00F0C46009021F0004123F000456D
:10053000B8EB0200A94105D24046214690461C4630
:100540000B46024623F00040104347D0270DC7F367
:100550000A00C3F30A510290401A019040286BDA56
:10056000C3F3130040F4801B0098924620B100238F
:10057000D2EB030A63EB0B0B01985946C0F1400222
:100580005046FFF783FF06460D4650465946019AEE
:1005900000F08CF910EB08006141002487EA115249
:1005A00084EAE7731A4340D0009A62B3019A012AA1
:1005B0004FEA075215DC001B61EB02014FF00042CD
:1005C00002EA0752CDE90042001C41F58011324693
:1005D0002B4600F08CF903B0BDE8F08F4046214671
:1005E000F9E7001B61EB0201001C41F580130018C4
:1005F0005B412018A2F5001747EB030140EAD570D4
:10060000B6196D4111E06D084FEA360645EAC0752E
:100610004FEA0752001B61EB0201001C41F58011FB
:1006200049084FEA30000019514132462B4603B0C9
:10063000BDE8F04F00F04CB90098012240000023C3
:10064000D0EB020263EBE073009821464FEAE074BE
:10065000B8EB000061EB0401E9E783F000435BE7DE
:1006600081F0004158E72DE9FE4F81EA030404F0D0
:10067000004421F0004100944FF0000B23F00043B0
:1006800050EA01045ED052EA03045BD0C3F30A547B
:10069000C1F30A552C44A4F2F3340194A0FB025494
:1006A000C1F3130141F48011C3F3130343F4801326
:1006B00001FB024400FB034E840A970A44EA81547A
:1006C00047EA8357A4FB076802958D0A05FB078557
:1006D0004FEA932C04FB0C542705029D4FEA065861
:1006E00047EA1637B5EB08056EEB070C870E920E3E
:1006F00047EA811742EA8312A7FB0201B6EB0B011E
:1007000064EB00042B0D43EA0C335E1844EB1C50E1
:10071000DA465146E7FB0201C5F313044FEA0B33F7
:1007200043EA14534FEA0432019C43EA0603A4F15E
:100730000C040294009CCDE900B400F0D8F803B09A
:10074000BDE8F08F00200146F9E72DE9F04D81EA80
:10075000030404F0004B21F0004514464FF0000A5A
:1007600023F0004150EA050220D054EA01021DD0D6
:10077000C5F30A570246C5F31303C1F31300C1F3CF
:100780000A5640F4801543F48013A7EB0608101BAB
:10079000D64608F2FD3873EB050002D308F10108D4
:1007A00001E092185B41B8F1000F03DA0020014626
:1007B000BDE8F08D00204FF48011064684460EE01F
:1007C000171B73EB050705D3121B63EB05030643E9
:1007D0004CEA010C49084FEA300092185B4150EA9C
:1007E0000107EDD152EA030012D082EA040083EA45
:1007F0000501084305D0101BAB4106D2012200239E
:1008000006E000224FF0004302E06FF001025310B7
:100810001AEB06004CEB085110EB0A0041EB0B0100
:10082000BDE8F04D00F054B8C1F30A52C1F3130112
:1008300040F2FF3341F480119A4202DA002001466F
:10084000704740F233439A42A2F2334202DC5242F2
:10085000FFF7CBBCFFF71ABE30B5041E71F10004E0
:1008600004DB4FF00044404264EB0101141E73F1BD
:10087000000405DB1C464FF00043524263EB0403C7
:10088000994208BF904230BD064C074D06E0E06833
:1008900040F0010394E8070098471034AC42F6D3C7
:1008A000FFF75AFC804F0008A04F0008202A06DB03
:1008B000CB17203A41FA02F043EAE07306E041FA2E
:1008C00002F3D040C2F1200291400843194670471C
:1008D00010B5141E73F1000408DA401C41F1000148
:1008E00092185B411A4301D120F0010010BD2DE99F
:1008F000F04D92469B4611B1B1FA81F202E0B0FA96
:1009000080F220329046FFF7C1FD04460F4640EAD0
:100910000A0041EA0B0153465A46084313D01146D8
:1009200053EA010019D0C8F140025046FFF75DFCC0
:1009300005460E46504659464246FFF7A7FD084376
:1009400005D0012004E020463946BDE8F08D0020A6
:10095000054346EAE0762C4337430A986305E40AE8
:10096000A0EB08000022FD0A44EA47540A3002D5F1
:1009700000200146E9E7010510196941DDE9084554
:1009800000196941BDE8F04DA2E770B58C1810F868
:10099000015B15F0070301D110F8013B2A1106D1C4
:1009A00010F8012B03E010F8016B01F8016B5B1EDE
:1009B000F9D12B0705D40023521E0DD401F8013BB9
:1009C000FAE710F8013BCB1A921C03E013F8015B25
:1009D00001F8015B521EF9D5A142D8D3002070BDA9
:1009E000FEE70020704700207047000010B500228D
:1009F0000549064802F004FD03490448403902F065
:100A0000F9FC002010BD0000E40C00208003002051
:100A100010B504460146064802F0ECFC20787F2819
:100A200001D204490870024802F0C8FC002010BD41
:100A300080030020000000200A46094910B5D1F8C3
:100A40001812D1F8141109B1012010BD0146044853
:100A500002F0D6FCBDE81040014802F011BD0000D4
:100A6000800300207047704770B5044600F0F8F826
:100A70000546601C02D004480078044400F0F0F8F9
:100A8000401BA042FAD370BDA40100202DE9F84F0D
:100A9000DFF8A091002309F1040A0AF1040B1C46B7
:100AA0004FF00F080BF1040E01270A68A7403A40E7
:100AB000BA4272D1DFF880C14D68A5EB0C066545DE
:100AC0002BD00DDC032D34D005DC35B3012D19D02E
:100AD000022D2FD11BE0112D16D0122D2AD119E095
:100AE000B6F5881F19D006DCB6F5803F15D0B6F5EF
:100AF000801F1FD111E0B6F5001F0ED0B6F5041F00
:100B000018D10AE0CB6815E0CB681B1D12E0CB685A
:100B100008330FE0CB680C330CE08B682BB1012B52
:100B20004FF0080303D0476104E0042302E00761AB
:100B300000E00023FF2A01D8064601E000F1040688
:100B40004FEA840501D9A5F12005376808FA05FCAC
:100B500027EA0C0703FA05F547EA050737604D68F1
:100B6000ED0060D5354DAE6946F00106AE61AD6968
:100B700024F0030605F001050095314D7719BE6894
:100B8000A5072D0F08FA05FC26EA0C06DFF8B4C00D
:100B9000604503D14FF0000C17E044E0DFF8A8C037
:100BA000604502D14FF0010C0FE0DFF8A0C06045B6
:100BB00002D14FF0020C08E0DFF894C0604502D18A
:100BC0004FF0030C01E04FF0040C0CFA05FC4CEA6A
:100BD000060CC7F808C04D68D9F80060ED034D4613
:100BE00001D5164300E096432E604D68DAF80060A8
:100BF000AD03554601D5164300E096432E604D687F
:100C0000DBF80060ED025D4601D5164300E0964337
:100C10002E604D68DEF80060AD02754601D51643C2
:100C200000E096432E60641C102CFFF43DAFBDE83D
:100C3000F88F000000040140000011100010024075
:100C40000000014000080140000C0140001001407C
:100C5000001401400AB1016170470904FBE700007C
:100C60000148806870470000A4010020006C7047B4
:100C700070B504001BD094F83D00002520B984F81D
:100C80003C50204600F038FA242084F83D002068CB
:100C9000016821F00101016001F028F8404A616813
:100CA000914201D83F4900E03F49884201D20120EA
:100CB00070BD3E492368B0FBF1F15960636893420F
:100CC00006D94FF4967359434FF47A73B1FBF3F19D
:100CD0002368491C19626168914210D84900401E7E
:100CE000B0FBF1F2521CC2F30B02042A01D2042021
:100CF00022E0B0FBF1F0401CC0F30B001CE0A26846
:100D0000CAB301EBC10303EB0116431EB3FBF6F3B9
:100D10005B1C43F480431B0536D06AB301EBC10270
:100D200002EB0111401EB0FBF1F0401CC0F30B00C0
:100D300040F4804040F400402168C861D4E90701D4
:100D4000084321680860D4E90310084321688860DB
:100D5000D4E9050108432168C8602068016841F0B2
:100D6000010101602564202084F83D00256384F89A
:100D70003E50002070BD00E008E001EB4106431E3C
:100D8000B3FBF6F35B1CC6E70120D5E701EB41019D
:100D9000401EB0FBF1F0401CC0F30B00CAE700009E
:100DA000A086010080841E0000093D0040420F0023
:100DB0002DE9F84F1F4690468A460446DDF82890F4
:100DC000FFF74EFF054694F83D0020287ED11923F9
:100DD000012278492046009501F091FC0028F5D1C8
:100DE00094F83C00012871D0012084F83C00206870
:100DF0000168C90703D1016841F001010160206861
:100E0000016821F400610160222084F83D00102077
:100E100084F83E0000262664C4F82480678566486E
:100E2000E062608D20852B464A465146204601F0FF
:100E300085FB28B1206C84F83C60042850D073E016
:100E4000208D5E4F68B1012814D002282068016807
:100E50001ED041F480610160206841698069009082
:100E60009AE02068416981690091016841F400714C
:100E7000016091E02068016821F48061016072B630
:100E80002068416981690091016841F400710AE0BC
:100E900041F40061016072B6206841698169009186
:100EA000016821F48061016062B675E0032850D8C2
:100EB00001280CD002284B464FF00002394620464C
:100EC000009512D001F01BFC70BB13E070E02A46C5
:100ED0004946204601F086FC28B1206C202823D00A
:100EE0000120BDE8F88F20684BE001F008FCD8B97C
:100EF00072B61BE02068016821F48061016072B65F
:100F000020680169606A421C62620170208D401E87
:100F10002085608D401E60854B4600223946204664
:100F2000009501F0ECFB08B10320DAE720680168C6
:100F300041F40071016020680169606A421C6262CC
:100F40000170208D401E2085608D401E608562B638
:100F5000C9E72A464946204601F044FC0028BCD196
:100F600020680169606A421C62620170208D401E27
:100F70002085608D401E608520684169C94349070E
:100F80000AD40169606A421C62620170208D401EB1
:100F90002085608D401E6085208D002886D1202010
:100FA00084F83D0084F83E6084F83C60002098E7B7
:100FB000022096E7020010000000FFFF040001007D
:100FC0002DE9F84F1F4690468A460446DDF82890E2
:100FD000FFF746FE054694F83D0020287ED11923F0
:100FE000012243492046009501F089FB00287DD16C
:100FF00094F83C00012879D0012084F83C00206856
:101000000168C90703D1016841F00101016020684E
:10101000016821F400610160212084F83D00102066
:1010200084F83E0000262664C4F824806785314891
:10103000E062608D20852B464A465146204601F0ED
:10104000EDFA28B1206C84F83C6004284CD00DE007
:10105000206841698069009030E02A464946204670
:1010600001F0F2FB28B1206C042838D00320BDE841
:10107000F88F606A411C6162216800780861608DA8
:10108000401E6085208D401E80B2208521684A69FF
:10109000D24352070BD450B1606A421C626200789E
:1010A0000861608D401E6085208D401E20852A4687
:1010B0004946204601F0FCFA0028D4D1208D0028B2
:1010C000CBD154F83D0B016841F400710160202040
:1010D00004F81E09E67766770020C8E706E0206876
:1010E000016841F4007101600120C0E70220BEE701
:1010F000020010000000FFFF10B586B00021009133
:1011000001910291039100680F4988421AD10F4C56
:10111000A06940F00800A061A069694600F00800DD
:101120000490C020009012200190032003900848F2
:10113000FFF7ACFCE06940F40010E061E06900F406
:101140000010049006B010BD005400400010024092
:10115000000C0140024881680278114481607047A8
:10116000A4010020074810B5016841F0100101609A
:10117000032000F073F8002000F006F800F024F8D7
:10118000002010BD0020024070B50D4D04464FF404
:101190007A712878B1FBF0F00A490968B1FBF0F0E8
:1011A00000F0F2FF48B9102C07D200222146501E51
:1011B00000F034F800206C6070BD012070BD0000AC
:1011C000A4010020B00100200C4808B5816941F05D
:1011D00001018161816901F001010091C16941F062
:1011E0008051C161C069064900F080500090486894
:1011F00020F0E06040F00070486008BD0010024040
:101200000000014000F01F020121914040098000D0
:1012100000F1E020C0F8001170470000F0B40E4B60
:101220001B68C3F30223C3F10704042C00D9042470
:101230001D1D072D01D2002300E0DB1E012606FA4A
:1012400004F56D1E0D409D409E40761E164045EAF9
:101250000601F0BC01F002BC0CED00E0064A00F013
:10126000070110684FF6FF03184040EA01200349C8
:1012700008431060704700000CED00E00000FA0524
:1012800070470068416200207047F0B50068002395
:10129000446A31B1856A4E1E04EB15444FF48275E1
:1012A0000AE044EA024181620FE005EB8307C75977
:1012B0005B1C04EB1744DBB2B342F6DB4FF48073E4
:1012C00003EB810144EA024242500020F0BDD0F815
:1012D000DC0302F005BBC1EBC10200EB8202D0F8D7
:1012E000DC03526B02F072BAC1EBC10200EB820266
:1012F000D0F8DC03D2F8F42102F0BDBAD0F8DC0358
:1013000002F0F0BA10B504460A460B0601F07F0061
:10131000C0EBC00104EB810101D5283101E001F5EA
:10132000F4710870D009487094F8A803012809D016
:10133000012084F8A803206802F0CAFD002084F888
:10134000A80310BD022010BD70B50A460446090668
:1013500002F07F0005D5C0EBC00104EB810128310C
:1013600005E0C2EBC20104EB810101F5F471002537
:101370008D700870D009487094F8A803012809D02E
:10138000012084F8A803206802F021FF84F8A85304
:10139000002070BD022070BD01F00F01C1EBC10142
:1013A00000EB8100B0F8000280B2704770B50446CF
:1013B0000D460E0601F07F00C0EBC00104EB810179
:1013C00001D5283101E001F5F4710870E809487091
:1013D0008A60CB7094F8A803012809D0012084F812
:1013E000A803206802F0DEFC002084F8A80370BD8A
:1013F000022070BD70B50D4601F07F04C4EBC4013E
:1014000000EB8101C1F8F4210022C1E97F3281F8AB
:10141000E92181F8E841006801F5F4716A0603D01A
:1014200002F036FF002070BD02F02CFEFAE770B526
:101430000D460446090605F07F0005D5C0EBC00146
:1014400004EB8101283105E0C5EBC50104EB810106
:1014500001F5F47101228A700870E809487094F867
:10146000A803012807D084F8A823206802F0E1FE31
:10147000680602D006E0022070BD04F56B7120689A
:1014800002F08EFE002084F8A80370BD70B50D46F2
:1014900001F07F04C4EBC40100EB81014A63002228
:1014A000C1E90F32012281F8292001F8284F006894
:1014B0006A0603D002F0ECFE002070BD02F0E2FDEF
:1014C000FAE72DE9F05F056804460026284603F098
:1014D00001F800287DD1206803F025F8002878D095
:1014E000206803F020F8800702D5216802204861B7
:1014F000206803F018F800034FF0010A4FF00809C4
:101500004FF0100B2AD5206802F0EFFF074623E0CA
:10151000F8071FD0F1B2206802F0FDFF8046C00737
:1015200007D005EB4611C1F808ABF1B22046FFF732
:10153000DBFE5FEA087006D5204600F025FA05EBD1
:101540004611C1F8089B5FEAC86003D505EB461158
:10155000C1F808BB7F08761C002FD9D1206802F0A3
:10156000E2FF400346D5206802F0B8FF804600261F
:101570003DE05FEAC87037D0F1B2206802F0BCFFEE
:101580000746C0070ED0D5F834280AFA06F0824381
:10159000C5F8342805EB4610C0F808A9F1B220467A
:1015A000FFF799FE380703D505EB4611C1F80899F6
:1015B000F80603D505EB4611C1F808B9780604D53D
:1015C00005EB46114020C1F80809B80706D50220EE
:1015D00000E00DE105EB4611C1F80809380603D516
:1015E0003146204601F050FA4FEA5808761CB8F10F
:1015F000000FBED1206802F096FF00280CDAD5F863
:10160000040820F00100C5F80408204600F0A0F905
:1016100021684FF000404861206802F084FF000517
:101620000AD5D5F80808C00702D0204600F0CCF94A
:1016300021684FF400604861206802F074FFC10423
:1016400004F56B7A3AD5D5F8040820F00100C5F806
:1016500004081021206802F02BFF0020FF2206E082
:1016600005EB4011C1F80829C1F8082B401C61683E
:101670008142F5D84FF0FF30C5F81808D5F81C089E
:1016800040F00110C5F81C08D5F8140840F00B0014
:10169000C5F81408D5F8100840F00B00C5F810087C
:1016A000D5F8000820F4FE60C5F80008514620680F
:1016B00002F076FD21684FF480504861206802F006
:1016C00032FF800417D5206802F0B4FB2068C1689F
:1016D00021F47051C1600320E06040202061206847
:1016E000C16841F4A051C160204600F01BF9216897
:1016F0004FF400504861206802F015FFC00636D54F
:101700002068816921F010018161D5F8208008F0FE
:101710000F00C0EBC00004EB8007C8F3434007F59F
:10172000F477022802D0062812D01BE047F6F071A9
:1017300018EA010F16D0C8F30A1290462846F96835
:1017400002F0F5FEF8684044F860B869404408E0EB
:1017500008225146284602F0EAFEB969C8F30A1089
:101760000844B8612068816941F0100181612068F6
:1017700002F0D9FE000705D5204600F0EDF82168FB
:10178000C1F81490206802F0CEFEC00207D5F1B275
:10179000204600F02FF821684FF48010486120683F
:1017A00002F0C1FE800207D5F1B2204600F026F813
:1017B00021684FF400104861206802F0B4FE400038
:1017C00006D52046FFF783FD21684FF08040486131
:1017D000206802F0A8FE40070AD52068456868071F
:1017E00002D52046FFF78AFD206841682943416001
:1017F000BDE8F09FD0F8DC0302F0C0B8D0F8DC03FD
:1018000002F0BEB82DE9F04186B004004FF00005AB
:1018100004D094F8A903002620B108E0012006B006
:10182000BDE8F08184F8A863204600F04DF803205D
:1018300084F8A903206802F01FFC04F110011422AF
:1018400088466846FEF7E1FC94E80F0002F00CFBC6
:101850000021206802F07BFE0127C5EBC50004EBE8
:10186000800080F8297000F8285FC580C670866007
:10187000C6606D1C46610F2DEFD30021C1EBC10086
:1018800004EB800080F8E96180F8E811C18580F8F8
:10189000EB61C0F8F061C0F8F461491CC0F8FC616C
:1018A0000F29EBD3142241466846FEF7AEFC94E8BC
:1018B0000F0002F05DFB84F8246084F8A9732068AF
:1018C00002F049FB0020AAE710B5006886B0B0F12D
:1018D000A04F21D1114CA06940F00400A061A06983
:1018E000694600F00400049060150090002001900B
:1018F00002900B48FFF7CAF8606940F480506061BD
:101900006069002200F48050049011464320FFF7E4
:1019100085FC4320FFF776FC06B010BD00100240A6
:101920000008014070B50446C068012570B1022866
:1019300001D0FFF798F82946D4F8DC0302F068F8E4
:10194000D4F8DC03BDE8704002F031B80025F2E7BE
:10195000D0F8DC0302F04AB8D0F8DC0302F04CB84F
:1019600010B5044690F8A80301280BD0012084F894
:10197000A80384F82410206802F0FFFD002084F8FA
:10198000A80310BD022010BDD0F8DC2300F56B7158
:10199000104602F049B810B5044690F8A803012893
:1019A00010D0012084F8A80301462046FFF768FC08
:1019B000206802F0C4FA206802F064FD002084F878
:1019C000A80310BD022010BD10B50446D0F8DC03FA
:1019D00002F069F82068D0F8001E41F00101C0F85B
:1019E000001EA069002804D00248016841F00601E9
:1019F000016010BD10ED00E02DE9F84F04460078BD
:101A00005C4D4FF00008C0074FF0010A4FD0E86965
:101A10000026C00008D4E86940F08050E861E86919
:101A2000012600F08050009053480168C90511D488
:101A30000168814641F480710160FFF711F90746A2
:101A400004E0FFF70DF9C01B642879D8D9F800002D
:101A5000C005F6D5286A10F440701DD0A18801F4A5
:101A60004071814218D0286A444920F44070C1F87E
:101A700000A000220A602862C0070DD0FFF7F0F82E
:101A8000074641F2883904E0FFF7EAF8C11B4945EF
:101A900056D8286A8007F7D5286A616820F4407014
:101AA000084328621EB1E86920F08050E861207880
:101AB000800705D56868A16820F440400843686045
:101AC0002078400705D5E86AE16820F40030084333
:101AD000E8622078000705D5E86A216920F48020B3
:101AE0000843E862E86A800305D4E86A400302D448
:101AF000B8F1000F33D02868C00028D4286840010E
:101B000005D5E86AA16900F0F000884225D1E86AAD
:101B1000A16920F0F0000843E862E86A616920F4F6
:101B200070400843E8621649C1F870A0FFF798F8C2
:101B3000064608E004E0FFF793F8801B642802D90A
:101B40000320BDE8F88F28688000F4D507E0E86A34
:101B5000616900F47040884201D00120F1E72078EB
:101B6000C00605D56868E16920F480000843686014
:101B70000020E6E7001002400070004040044242AE
:101B8000000042422DE9F047DFF8508104460E463E
:101B9000D8F8000000F00700B0420CD2D8F80010CE
:101BA00021F007013143C8F80010D8F8000000F018
:101BB0000700B0426DD12068494F810712D5400718
:101BC00003D5786840F4E06078602078000703D59A
:101BD000786840F4605078607868A16820F0F00080
:101BE000084378602078C00742D06068012816D08A
:101BF0003968022816D0890700294ADA796821F065
:101C0000030101437960FFF72BF80546606841F254
:101C1000883101280ED00228894617D024E039687F
:101C20008903E9E78901E7E7FFF71AF8411B49450E
:101C300001D916E089467868C0F381000128F3D104
:101C400016E0FFF70DF8411B49450AD87868C0F344
:101C500081000228F5D10BE0FFF702F8411B49454E
:101C600002D90320BDE8F087786810F00C0FF3D19B
:101C7000D8F80010404601F00701B1420BD90168C5
:101C800021F0070131430160006800F00700B04215
:101C900001D00120E6E72078400705D57868E168A3
:101CA00020F4E060084378602078000706D5786863
:101CB000216920F4605040EAC100786000F026F805
:101CC0007968084AC1F30311515CC84006490860AD
:101CD0000020FFF759FA0020C4E70000002002406E
:101CE00000100240684F0008B00100200448054978
:101CF00000684968044AC1F30221515CC84070473A
:101D0000B001002000100240784F0008F0B524A078
:101D100089B00FC88DE80F0025A004AC0FC884E877
:101D20000F00274B586800F00C01042904D0082943
:101D300004D0244809B0F0BD2348FBE7C0F3834238
:101D4000C0031DF8024028D5D86A04A900F00F008E
:101D5000085CD96AC90316D5D96AC1F30312D96AD6
:101D6000521CC1F30321891CA2FB0023A1FB041711
:101D7000154D0026A1FB050C07FB05C501FB06510F
:101D8000FEF702FA03E010496143B1FBF0F09DF861
:101D90000D10A142CED14008CCE70C486043C9E702
:101DA000000004050607080900000000000D0000FF
:101DB0000102030405060708090A0B0C0D0E0F109B
:101DC0000010024000127A0040787D0100093D00B9
:101DD0002DE9F84F04460078E64DC00747D0686803
:101DE000C0F38100012807D06868C0F38100022891
:101DF00009D16868C00306D52868800337D5A06874
:101E000000287DD033E0A068B0F5803F0BD010B142
:101E1000B0F5A02F11D0286820F480302860286801
:101E200020F4802002E0286840F480302860A06818
:101E300088B1FEF715FF064609E0286840F48020C7
:101E40002860F0E7FEF70CFF801B642875D828682F
:101E50008003F7D50BE0FEF703FF064604E0FEF72C
:101E6000FFFE801B6428F1D828688003F7D420780F
:101E7000C14E80074FF0010A4FF0000739D568685E
:101E800010F00C0F07D06868C0F38100022809D158
:101E90006868C00306D42868800714D560690128E3
:101EA0002ED110E06069B0B1C6F800A0FEF7D8FEF0
:101EB000804605E0FEF7D4FEA0EB08000228C5D856
:101EC00028688007F6D52868A16920F0F80040EA64
:101ED000C10028600DE03760FEF7C2FE804605E0D5
:101EE000FEF7BEFEA0EB08000228AFD828688007E6
:101EF000F6D4207800072FD5A048E169F1B100E0C1
:101F00001CE1C0F800A0FEF7ABFE804605E0FEF73E
:101F1000A7FEA0EB0800022898D8686A8007F6D5CB
:101F200097484FF4FA510068B0FBF1F0009000BF01
:101F30000098411E0091FAD20EE0B1E00760FEF772
:101F40008FFE804605E0FEF78BFEA0EB080002281E
:101F500089D8686A8007F6D42078400762D5E86996
:101F60004FF00009C00009D4E86940F08050E861F2
:101F7000E8694FF0010900F0805000908148016845
:101F8000C90512D40168834641F480710160FEF7EF
:101F900067FE804605E0FEF763FEA0EB08006428BC
:101FA0007ED8DBF80000C005F5D5206901280AD0ED
:101FB00008B1052813D0286A20F001002862286A99
:101FC00020F0040002E0286A40F001002862206945
:101FD00041F2883B90B1FEF743FE80460AE0286A52
:101FE00040F004002862EEE7FEF73AFEA0EB08019D
:101FF000594555D8286A8007F6D50CE0FEF730FE23
:10200000804605E0FEF72CFEA0EB0801594547D8B5
:10201000286A8007F6D4B9F1000F03D0E86920F0F0
:102020008050E861E06AE0B36968C90307D5696870
:10203000C1F38101022902D1E96AC9037ED40228D1
:1020400008D0E86A20F48030E862B766FEF708FE40
:1020500080463BE02868C00005D5E86A616B00F067
:10206000F00088426AD1B766FEF7FAFD804605E0C7
:10207000FEF7F6FDA0EB0800642871D8286800017F
:10208000F6D4E86A616B20F0F0000843E862E86A81
:10209000216B20F470600843E862C6F868A001E094
:1020A0005EE016E0FEF7DCFD804605E0FEF7D8FDB9
:1020B000A0EB0800642853D828680001F6D508E092
:1020C000FEF7CEFDA0EB0800642849D8286800017F
:1020D000F6D4206A98B36968C1F38101022947D018
:1020E0000228376603D0FEF7BBFD04463BE0FEF74F
:1020F000B7FD074604E0FEF7B3FDC01B02282FD84A
:1021000028688001F7D4606AB0F5803F09D1E86A99
:1021100061680843E862E86AE16820F00F0008435C
:10212000E862D4E909010843696821F4741108439D
:102130006860C6F860A0FEF793FD01E018E015E0C6
:10214000044604E0FEF78CFD001B022808D828682E
:102150008001F7D50AE0FEF783FD001B022802D9B3
:102160000320BDE8F88F28688001F4D40020F8E748
:102170000120F6E700100240000042428004424283
:10218000B00100200070004010B5401EB0F1807F0B
:1021900001D3012010BD4FF0E02460610F216017D2
:1021A00000F05CFC0020A06107202061002010BD31
:1021B00070477047704770B50446006801694FF07A
:1021C0000005C943890715D4C168C943890711D4DB
:1021D000E91E016101202077206880698007204680
:1021E00002D0FFF7E7FF04E000F098F8204600F087
:1021F00096F8257720680169C943490717D4C16853
:10220000C943490713D46FF004010161022020770C
:102210002068806910F4407F204602D0FFF7CAFF93
:1022200004E000F07BF8204600F079F8257720687C
:102230000169C943090716D4C168C943090712D403
:102240006FF008010161042020772068C0698007D1
:10225000204602D0FFF7AEFF04E000F05FF8204612
:1022600000F05DF8257720680169C943C90617D4D5
:10227000C168C943C90613D46FF010010161082079
:1022800020772068C06910F4407F204602D0FFF715
:1022900091FF04E000F042F8204600F040F8257776
:1022A00020680169C943C90708D1C168C943C90782
:1022B00004D1891E0161204600F032F820680169CE
:1022C000C943090609D4C168C943090605D46FF09A
:1022D000800101612046FFF76BFF20680169C94357
:1022E000490609D4C168C943490605D46FF04001C5
:1022F0000161204600F015F820680169C94389068C
:102300000BD4C168C943890607D46FF0200101616D
:102310002046BDE87040FFF74CBF70BD7047704766
:1023200070477047FEE7000073B590B04FF400446B
:10233000174D4FF47A761DE01648FEF797FC0428F7
:1023400018D03C2214A16846FDF75FFF0122214608
:102350002846FEF77FFC6420FEF786FB002221461C
:102360002846FEF777FC6420FEF77EFB3A2168469C
:10237000FEF762FB012311AA912106480096FEF7A1
:1023800017FD0028D8D19DF8440012B070BD0000A0
:1023900000180140EC02002049324320726561645C
:1023A0002062797465206572726F722E436865636E
:1023B0006B2041444320626F61726420636F6E6ED4
:1023C000656374696F6E207468656E2072657365ED
:1023D000740000002DE9F04340068FB09046894616
:1023E000050E4FF40046114F4FF47A7412E0104876
:1023F000FEF73CFC04280DD038220EA16846FDF7FC
:1024000004FF012231463846FEF724FC3821684695
:10241000FEF712FB43464A46294605480094FEF75C
:10242000CFFD0028E3D10FB0BDE8F08300180140D4
:10243000EC02002049324320777269746520617292
:10244000726179206572726F722E436865636B20CA
:102450005043413935333220617373656D626C7955
:10246000207468656E20726573657400F3B54FF46F
:10247000FA758FB04FF40046154C6F001DE01548FB
:10248000FEF7F4FB042818D03C2213A16846FDF7A0
:10249000BCFE012231462046FEF7DCFB2846FEF753
:1024A000E3FA002231462046FEF7D4FB2846FEF729
:1024B000DBFA3C216846FEF7BFFA012310AA9021FF
:1024C00004480097FEF77CFD0028D8D111B0F0BD7C
:1024D00000180140EC0200204932432077726974F1
:1024E000652062797465206572726F722E20436870
:1024F00065636B2041444320626F61726420636FA7
:102500006E6E656374696F6E207468656E207265A7
:102510007365740001684A69D24352050CD46FF4A4
:1025200080624A6104210164002140F8301F2022AA
:102530004273017301207047002070472DE9F84F66
:102540000446C06A1D4692460F4621680A6842F456
:1025500080620A60042807D0012805D010F5803F6A
:1025600002D0206B112804D12068016841F48071E9
:1025700001604FF001185346002241462046009565
:1025800000F0BDF8B8BB206908F10109B0F5804F33
:1025900012D00620216800EAD71646F0F000086144
:1025A0002B46524608F10701204600F0D8F838B112
:1025B000206C04282FD01EE0F8B240F001001FE08C
:1025C0002168F8B208612B4652464946204600F081
:1025D000C6F80028ECD12068416981690091016842
:1025E00041F4807101605346002241462046009527
:1025F00000F085F810B10320BDE8F88F46F0F10037
:10260000216808612B4652464946204600F0A7F84B
:102610000028CDD1F0E70120EEE70000F8B5044630
:10262000C06A1E460D461746042807D0012805D06B
:1026300010F5803F02D0206B122804D12068016879
:1026400041F480710160134600224FF001112046D1
:10265000009600F054F8A0B92069B0F5804F12D070
:102660000620216800EAD51040F0F00008613346EA
:102670003A460E49204600F072F838B1206C042822
:1026800011D00320F8BD05F0FE0000E0E8B221689B
:102690000861064933463A46891F204600F05FF834
:1026A0000028EBD1F8BD0120F8BD000008000100B2
:1026B00070B516460D4604461AE02046FFF72AFF7D
:1026C00008B1012070BD681C12D025B1FEF7C8FA10
:1026D000801BA8420CD954F8400F40F0200044F869
:1026E000100900202060202161732073032070BD39
:1026F00020684069C0434007DFD4002070BD2DE949
:10270000F0471D4690460E460446C1F30747DDF8E4
:10271000209012E0681C10D02DB1FEF7A1FAA0EBBA
:102720000900A84209D9002044F8300F2021617324
:10273000A07320730320BDE8F0872068012F0AD022
:10274000806926EA00000004000C06D00020404505
:10275000E0D00020EFE74069F3E70120F7E72DE93B
:10276000F047984615460E4604464FF000094FF0D4
:10277000200AC1F3074729E020684069C0434005AB
:1027800013D42068016841F40071016021686FF47E
:102790008060486104202064C4F8309084F83DA033
:1027A00084F83C900120BDE8F087681C0ED02DB164
:1027B000FEF756FAA0EB0800A84207D944F8309F6C
:1027C00084F80DA084F80C900320ECE72068012F1A
:1027D00006D0806926EA00000004000CE3D0CBE7B5
:1027E0004069F7E72DE9F04116460D4604460027FB
:1027F0004FF0200821E04069C043C0060CD4216896
:102800006FF0100048612764276384F83D8084F8E6
:102810003C700120BDE8F08125B1FEF721FA801B54
:10282000A8420AD954F8400F40F0200044F80409A7
:1028300084F8018027700320ECE720684169C943D0
:102840004906D8D40020E5E770B516460D46044683
:102850001AE02046FFF75EFE08B1012070BD681C3B
:1028600012D025B1FEF7FCF9801BA8420CD954F810
:10287000400F40F0200044F8100900202060202183
:1028800061732073032070BD20684069C043000657
:10289000DFD4002070BDF0B500230A243025372690
:1028A0001F4610E0B4EB107F02D905EB107C01E06D
:1028B00006EB107C01F813C001EB430C00015B1C1C
:1028C0008CF80170DBB29342ECD3F0BD08B504A0E4
:1028D00003220068009069466020FFF77BFD08BD79
:1028E00016000000FEB518A000220068019016A096
:1028F000164D006802901146104601AC13462E5C3E
:10290000022E00D12354265C401C32430428F6DBFF
:10291000042002AC2E5C022E02D1261806F8043CDC
:102920002618401C16F8046C31430828F2DB08A076
:10293000006800908DF801208DF80210032269468E
:102940006020FFF747FDFEBD01041040110000208C
:102950001600000070B586B0002418480094019459
:1029600002940394816941F040018161816901F021
:1029700040010491816941F004018161816901F0A4
:1029800004010491816941F00801816180690C4E64
:1029900000F008004FF4004504900022294630461C
:1029A000FEF758F901200095CDE9010402200390BB
:1029B00069463046FEF76AF806B070BD0010024066
:1029C000001801400D4810B50B4901600C494160E9
:1029D00000214FF480428160C0E9031241618161AE
:1029E000C1610162FEF744F9002803D0BDE8104040
:1029F000FEF739B810BD000000540040EC02002082
:102A0000A086010010B500220F49104800F0B7FE63
:102A100008B1FEF728F80E490C4801F06AF808B131
:102A2000FEF721F80B49094800F0DCFC08B1FEF77D
:102A30001AF8064801F0AAF8002803D0BDE81040B3
:102A4000FEF711B810BD00004401002080030020F3
:102A50009402002094010020FEE770470907090E48
:102A6000002806DA00F00F0000F1E02080F8141DC5
:102A7000704700F1E02080F8001470470148FEF72D
:102A800020BD0000C40600202DE9F0470E46C1EB32
:102A9000C60100EB8104D0F80080D4E90F01451A8B
:102AA000206B2834A84200D20546E81C870808EBB2
:102AB000461912E0451AA068A84200D20546E81C53
:102AC0008708ABB2F2B24046E16801F067FDE0680A
:102AD0002844E060A0692844A061D9F8180980B2B0
:102AE000B84205D9D4E90501814201D20028E1D1DB
:102AF000002D06DC0120D8F83418B0408143C8F816
:102B000034180020BDE8F087704700002DE9F0413F
:102B10001A4FDFF86C801B4E002407F10805395D61
:102B20004820FFF7A3FC295D4820FFF7FDFBC0B25A
:102B30002855A4B1012C12D0072C05D0FDF764FC58
:102B40004146FDF7E5FB12E0E879FDF75DFC414603
:102B5000FDF7DEFB0C49FDF7DBFBF06109E0FDF75B
:102B600053FC4146FDF7D4FB0121FDF741FC46F83B
:102B70002400641C082CD2DBBDE8F0810100002099
:102B8000295C1F3CCC020020000040402DE9F04FA2
:102B90000020224D99B002212954401C8846082863
:102BA000FADB20221E496846FDF72FFB0024EA4687
:102BB0000DF1400BA9465AF824501A492846FDF752
:102BC000A7FB1949FDF7D6FB06462946FDF79DFBF5
:102BD00008A9074641F8240030462946FDF740FB86
:102BE000124E4BF824005D4656F824003946FDF796
:102BF0002DFC0AD255F8241056F82400FDF71CFCD1
:102C000003D2012109F8041001E009F80480641CD2
:102C1000082CD0DB19B0BDE8F08F000011000020B7
:102C2000484F00080000A0400000C842CC0200202D
:102C30007047FEF78FBA000030B59BB03821684668
:102C4000FDF7FCFA14210EA8FDF7F8FA202113A8CD
:102C5000FDF7F4FA012420040421CDE90201022544
:102C6000CDE908500094019005940001CDE90A05D2
:102C70004FF4C0600C9040200D906846FFF7A8F814
:102C80000F20CDE90E050020A102CDE91001129020
:102C900001210EA8FEF776FF1020139080041A90F1
:102CA00013A8FEF7A9FE024804671BB030BD000060
:102CB000000042421048016841F001010160416892
:102CC0000E4A1140416001680D4A114001600168DF
:102CD00021F480210160416821F4FE014160016816
:102CE00021F0A05101604FF47F0181600021C16299
:102CF0000449C00308607047001002400000FFF064
:102D0000FFFFF6FE08ED00E00148FFF754BA0000AF
:102D10004003002030B599B00022F54BF5A168467C
:102D200001F04EFC6846FDF794FA81B26846FDF763
:102D300083FE0520FDF798FEFE4DFF4C2878012804
:102D400022D11E2105F10800FDF776FE0520FDF7D2
:102D50008BFE252105F58770FDF76EFE0520FDF73A
:102D600083FE2068FDF755FB02460B46F3A168463B
:102D700001F026FC6846FDF76CFA81B26846FDF763
:102D80005BFE0520FDF770FE2878022822D1E94875
:102D90001E210830FDF750FE0520FDF765FEE548D1
:102DA0002821E630FDF748FE0520FDF75DFE20688E
:102DB000FDF72FFB02460B46E0A1684601F000FC40
:102DC0006846FDF746FA81B26846FDF735FE0520F4
:102DD000FDF74AFE6878012821D1D6481C2126300B
:102DE000FDF72AFE0520FDF73FFE2521D548FDF71A
:102DF00023FE0520FDF738FE6068FDF70AFB02465A
:102E00000B46CEA1684601F0DBFB6846FDF721FAD0
:102E100081B26846FDF710FE0520FDF725FE6878B3
:102E2000022822D1C3481C212630FDF705FE0520CB
:102E3000FDF71AFEC34828212838FDF7FDFD0520BF
:102E4000FDF712FE6068FDF7E4FA02460B46BBA1EF
:102E5000684601F0B5FB6846FDF7FBF981B26846AC
:102E6000FDF7EAFD0520FDF7FFFDA878012821D137
:102E7000B0481B214230FDF7DFFD0520FDF7F4FDD2
:102E80002521B048FDF7D8FD0520FDF7EDFDA06830
:102E9000FDF7BFFA02460B46A8A1684601F090FB79
:102EA0006846FDF7D6F981B26846FDF7C5FD0520F5
:102EB000FDF7DAFDA878022822D19E481B21423076
:102EC000FDF7BAFD0520FDF7CFFD9E4828212838E3
:102ED000FDF7B2FD0520FDF7C7FDA068FDF799FAE3
:102EE00002460B4695A1684601F06AFB6846FDF76D
:102EF000B0F981B26846FDF79FFD0520FDF7B4FDEE
:102F0000E878012821D18B481C215D30FDF794FD24
:102F10000520FDF7A9FD25218A48FDF78DFD052037
:102F2000FDF7A2FDE068FDF774FA02460B4683A1A7
:102F3000684601F045FB6846FDF78BF981B26846AB
:102F4000FDF77AFD0520FDF78FFDE878022822D1F4
:102F500078481C215D30FDF76FFD0520FDF784FDED
:102F6000784828212838FDF767FD0520FDF77CFD0E
:102F7000E068FDF74EFA02460B4670A1684601F084
:102F80001FFB6846FDF765F981B26846FDF754FD01
:102F90000520FDF769FD2879012821D165481D210B
:102FA0007930FDF749FD0520FDF75EFD25216548D7
:102FB000FDF742FD0520FDF757FD2069FDF729FAD1
:102FC00002460B465DA1684601F0FAFA6846FDF735
:102FD00040F981B26846FDF72FFD0520FDF744FD5D
:102FE0002879022822D153481D217930FDF724FD8C
:102FF0000520FDF739FD534828212838FDF71CFD31
:103000000520FDF731FD2069FDF703FA02460B4666
:103010004AA1684601F0D4FA6846FDF71AF981B270
:103020006846FDF709FD0520FDF71EFD68790128BA
:1030300021D144481F217838FDF7FEFC0520FDF71B
:1030400013FD25213F48FDF7F7FC0520FDF70CFD9A
:103050006069FDF7DEF902460B4638A1684601F0CB
:10306000AFFA6846FDF7F5F881B26846FDF7E4FC73
:103070000520FDF7F9FC6879022822D131481F218B
:103080007838FDF7D9FC0520FDF7EEFC2D48282106
:103090002838FDF7D1FC0520FDF7E6FC6069FDF757
:1030A000B8F902460B4625A1684601F089FA684640
:1030B000FDF7CFF881B26846FDF7BEFC0520FDF7AD
:1030C000D3FCA87901284FD11E481E215938FDF79D
:1030D000B3FC0520FDF7C8FC25211A48FDF7ACFC20
:1030E0000520FDF7C1FCA069FDF793F902462BE02E
:1030F000000014400A0A496620766F6C74616765A7
:1031000020646576696174696F6E206973206772E7
:103110006561746572207468616E20252E326620A8
:103120002525202D206368616E6E656C2045525206
:103130004F520A0011000020CC020020252E3366D9
:103140000D0A0A001F0100200B46AFF2100168466D
:1031500001F036FA6846FDF77CF881B26846FDF763
:103160006BFC0520FDF780FCA879022822D11E21E6
:103170003A48FDF761FC0520FDF776FC3748282129
:103180003130FDF759FC0520FDF76EFCA069FDF715
:1031900040F902460B46AFF25C01684601F010FAB6
:1031A0006846FDF756F881B26846FDF745FC0520F4
:1031B000FDF75AFCE879012823D1284813211E3055
:1031C000FDF73AFC0520FDF74FFC24482521593036
:1031D000FDF732FC0520FDF747FCE069FDF719F922
:1031E00002460B46AFF2AC01684601F0E9F96846C9
:1031F000FDF72FF881B26846FDF71EFC0520FDF7AC
:1032000033FCE879022823D1144813211E30FDF73E
:1032100013FC0520FDF728FC104828213130FDF76C
:103220000BFC0520FDF720FCE069FDF7F2F80246F3
:103230000B46AFF2F801684601F0C2F96846FDF7A7
:1032400008F881B26846FDF7F7FB0520FDF70CFC96
:1032500002490020C639087019B030BDC6000020F0
:10326000D0F8180220B10021C0F8141108467047A8
:103270000220704770B50546D0F8184200F03DFBBB
:10328000C4F80C01D5F8180248B1D5F81C12D4F8CE
:103290000401CA6804F586719047002070BD0220C1
:1032A00070BD70B504460025812100F086FA012129
:1032B000204600F082FA8221204600F07EFAD4F8FF
:1032C000180250B1D4F81C0204F506744068804717
:1032D000206800F061FD00202060284670BD10B518
:1032E000D0E9864159B194F80001FF2807D08B68D6
:1032F00094F8012121469847FF2084F8000100201E
:1033000010BD00000A21018000487047BC01002068
:1033100043210180004870470C02002043210180B6
:1033200000487047C80100204321018000487047D1
:10333000500200202DE9F0410546007C00264FF4A4
:10334000807770B3402302228121284600F01AFBC7
:10335000402302220121284600F014FB0823032207
:103360008221284600F00EFB4FF48E7000F016FD0F
:10337000C5F81802F0B10446D5F81C020068804771
:103380000021C4F81411C4F81811287CD4F80421C1
:1033900090B140230121284600F000FB3046BDE8F3
:1033A000F081FFE73B4602228121284600F0EAFA3D
:1033B0003B46CEE70126F1E73B46EBE710B5D0F8F8
:1033C000181269B1027C002AD1F8042105D04023EB
:1033D000012100F0E3FA002010BD4FF48073F7E7FD
:1033E000022010BD02460220002902D00020C2F8AF
:1033F0001C127047D0F81802C0F804110020704762
:10340000D0F81802C0F81021C0F808110020704749
:1034100070B50646D0F8185208780C4610F06001D6
:1034200021D0202927D1E288AAB10006607807D5EB
:10343000D6F81C128B6829469847E288294617E07F
:1034400085F80001A07985F80101E2882946304617
:1034500000F050F80FE0D6F81C12607800228B685C
:103460002146984707E060780A2804D103490122E1
:10347000304600F059F8002070BD0000B80100206F
:1034800010B5D0F8181289B1D1F814210AB1012071
:1034900010BD0122C1F81421B1F8102193B2D1F866
:1034A0000821812100F008FB002010BD022010BD82
:1034B00010B5D0F8142252689047002010BD134672
:1034C00010B50A46002100F069FA002010BD13462D
:1034D00010B50A46002100F0EFFA002010BD10B52B
:1034E0000446802100F0CDFA2046BDE810400021BE
:1034F00000F0C7BA10B50323C0F80821C0F8F431B2
:10350000C0F80C2113460A46002100F047FA0020BB
:1035100010BD10B505210023C0F8F4111A46194654
:1035200000F03CFA002010BD10B502238261C0F803
:10353000F431C26113460A46002100F0BDFA0020B2
:1035400010BD10B504210023C0F8F4111A46194625
:1035500000F0B2FA002010BD10B50A46024903A0DF
:1035600000F0DEF8004810BDA40A002043444320C8
:10357000436F6E666967000012200880004870473C
:103580006401002010B50A46024903A000F0C8F803
:10359000004810BDA40A002043444320496E7465CE
:1035A000726661636500000004200880004870476F
:1035B0006001002010B50A46024903A000F0B0F8EF
:1035C000004810BDA40A002053544D6963726F6512
:1035D0006C656374726F6E696373000010B50A46A0
:1035E000024903A000F09CF8004810BDA40A002086
:1035F00053544D3332205669727475616C20436F99
:103600006D506F727400000010B51A2008800A48CF
:103610000168001D0468001D0068081809D0082210
:103620000649FFF738F90549042210312046FFF713
:1036300032F90248801E10BDE8F7FF1F7A01002012
:10364000F8B5044648880D46010A08294BD2DFE840
:1036500001F04A0409174A4A4048D4F81012207C65
:103660000A6832E0207C02260028D4F8140205D033
:10367000C16A684688470146467041E0816AF8E7BA
:10368000C0B206282FD2DFE800F003080D12171C85
:10369000D4F81012207C4A6817E0D4F81012207C6D
:1036A0008A6812E0D4F81012207CCA680DE0D4F8C1
:1036B0001012207C0A6908E0D4F81012207C4A69B4
:1036C00003E0D4F81012207C8A69694690470146CD
:1036D00016E0207C38B9D4F81402416B684688475C
:1036E000F5E7207C20B129462046FFF7F8FEF8BD1B
:1036F000D4F81402016B68468847014607204870D9
:10370000BDF800000028F2D0EA88002AEFD08242FB
:1037100000D90246ADF800202046FFF705FFF8BDAE
:1037200070B5002300281DD00446002502E06D1C62
:10373000EDB2641C2678002EF9D1022404EB450476
:103740001480CC545B1C0322CA5400245B1C06E08A
:10375000CA545B1CDAB28C54521CD3B2401C02789F
:10376000002AF5D170BD01004FF0000004D00129FE
:1037700001D0022901D0022070470120704710B506
:1037800080B1D0F8143213B10023C0F8143209B15B
:10379000C0F81012012180F8FC11027000F0B2F89C
:1037A000002010BD022010BD10B5D0F82002FDF79A
:1037B000CBFDBDE81040FFF7D6BF10B5D0F8200212
:1037C000FDF7A0FDBDE81040FFF7CDBF2DE9F041AA
:1037D0001746044641B1D4F8140242698AB394F8FA
:1037E000FC01032842D043E0D4F8F411002504F191
:1037F0001400022933D1D0E902639E4207D9F31A9B
:1038000083609AB239462046FFF761FE12E04068B5
:10381000B0FBF3F103FB1101A1B9984212D3D4F824
:10382000F81188420ED2002211462046FFF74FFEC3
:10383000C4F8F85100231A461946204600F0AEF8A5
:103840000DE012E0D4F81402C16829B194F8FC012B
:10385000032801D1204688472046FFF75AFE94F8F6
:103860000002012804D184F8005201E0204690476C
:103870000020BDE8F08170B51546044641B1D4F88A
:10388000140282693AB394F8FC01032824D025E09D
:10389000D4F8F41104F5827003291FD1D0E9023164
:1038A0008B420BD95B1A83600846834200D30346E0
:1038B0009AB229462046FFF702FE0FE0D4F8140220
:1038C000016929B194F8FC01032801D120468847F9
:1038D0002046FFF736FE01E020469047002070BDED
:1038E0000020704710B5012180F8FC11D0F8142297
:1038F000017952689047002010BDD0F82002FDF7F2
:103900004BBD000010B5017821BB1349C1F8DC03A1
:10391000C0F820124FF0A040086004204860022048
:10392000C8600020486188610120C8610846FDF731
:1039300069FF08B1FDF797F880210748FDF7A1FC62
:10394000402200210448FDF7A0FC8022012102480A
:10395000FDF79BFC002010BDC40600200A0601F004
:103960007F01D0F82002C1EBC10100EB810002D53C
:1039700090F82A00704790F8EA01704700207047DD
:103980000020704710B51C461346D0F8200222468E
:10399000FDF70CFDBDE81040FFF7E5BE10B5D0F80F
:1039A0002002FDF727FDBDE81040FFF7DCBE70B533
:1039B0000022044640231146FFF7E4FF40252B4632
:1039C000002280212046C4F81051FFF7DBFF0120C0
:1039D000256284F8FC01D4F8180228B1D4F8140246
:1039E0002179426820469047002070BD90F8FD1173
:1039F00080F8FC110020704710B590F8FC110329E5
:103A000004D1D0F81412C96901B18847002010BD53
:103A100001740020704710B5D0F82002FDF7A0FF18
:103A2000BDE81040FFF79FBE70B5044600F5027078
:103A3000054600F04AF80120C4F8F401B4F80E027B
:103A4000C4F8F80194F8082212F01F000AD00128E7
:103A50000DD0022810D002F08001204600F011F8AD
:103A6000002070BD2946204600F095F8F8E7294669
:103A7000204600F077F9F3E72946204600F004F9E4
:103A8000EEE710B5D0F82002FDF7D1FCBDE81040FC
:103A9000FFF769BE10B5D0F82002FDF77CFFBDE846
:103AA0001040FFF760BE90F8FC1180F8FD11042172
:103AB00080F8FC110020704710B5D0F82002FDF707
:103AC000E5FCBDE81040FFF74EBE0A7802704A7868
:103AD00042708A78CB7802EB032242800A794B79D4
:103AE00002EB032282808A79C97902EB0121C1802D
:103AF00070470246002011B1C2F81412704702202C
:103B0000704710B5D0F8142202241AB112689047F9
:103B100000B90024204610BD70B50D461A4E8978B4
:103B200004463170012928D894F8FC01022802D0FB
:103B3000032822D105E099B10320616084F8FC01DB
:103B400009E091B1606888420AD0C1B22046FFF70F
:103B5000AFFC317861602046FFF7D3FF02280CD01C
:103B60002046BDE87040FFF7ECBC022084F8FC0161
:103B700020466160FFF79CFCF2E729462046BDE83D
:103B80007040FFF7ACBC0000B401002010B5FFF797
:103B900081FF002010BD2DE9F04100274A78012661
:103BA0003B460A2A43D2DFE802F03C584251420821
:103BB00005422A27FFF744FD63E004468888C8B918
:103BC000C888B8B9887800F07F0594F8FC0103280C
:103BD00010D084F8FE5129462046FFF71CFF2046EE
:103BE000FFF7AFFC1DB1022084F8FC0149E084F826
:103BF000FC6146E020461AE0FFF78EFF41E0CA88EC
:103C0000012A14D190F8FC21022A02D0032A0ED1F5
:103C100004E0012200F10801836014E00122011D8B
:103C200011E090F8FC21022A04D0032A02D0FFF709
:103C300056FC26E0C660D0F8041209B10321C16029
:103C4000022200F10C01FFF76FFC1AE004464888DD
:103C5000012816D1C4F804620BE0044690F8FC0178
:103C6000022801D00328C5D14888012809D1C4F809
:103C70000432D4F814028268204690472046FFF7A9
:103C800060FC3846BDE8F08170B50D4604462878E2
:103C900000260979C0F34110012806D06878A0B346
:103CA00001281FD003283FD107E0D4F81402294689
:103CB000826820469047002070BD94F8FC010228DD
:103CC00017D003282CD1688828B921B1802902D0C7
:103CD0002046FFF7D6FED4F8140229468268204613
:103CE000904713E094F8FC01022802D0032817D172
:103CF00003E0C9B180291BD116E06888A0B9480645
:103D000004D02046FFF750FDE5E703E02046FFF72B
:103D100018FC09E094F8FC01022807D003280BD016
:103D200029462046FFF7DBFB304670BD4806FBD036
:103D30002046FFF7A6FEF7E7080601F07F0004EB38
:103D4000001501D5143501E005F582752046FFF711
:103D500005FE00B101202860022229462046FFF717
:103D6000E3FBE1E770B5054690F8FC010C4603283B
:103D70000DD1207901280AD8D5F814028268284686
:103D80009047E08830B92846FFF7DBFB02E0284681
:103D9000FFF7A5FB002070BD70470000004870478A
:103DA000A405002030B54B780A7803B1CA80CA78E0
:103DB000022A01D100220A711D4C01220D78AA406D
:103DC000012BD0F81C3818D043EA0242C0F81C2856
:103DD0000A7800EB4210D0F8002B12040BD4D0F874
:103DE000002B0B89C3F30A031A43C97844EA8141C3
:103DF0000A43C0F8002B002030BD92B21343C0F834
:103E00001C380A7800EB4210D0F800391B04F2D4B9
:103E1000D0F800390D89C5F30A052B43C978890408
:103E200041EA82510B432343C0F80039E3E7000025
:103E300000800010D0F800196FF30A01C0F80019D3
:103E4000D0F80818C1F34101022905D1D0F80019B2
:103E500041F00301C0F80019D0F8041841F4807152
:103E6000C0F804180020704710B50446C06840F040
:103E70004000E060204600F005F84FF48030A06379
:103E8000002010BD0146002200BF501C02460F4B0F
:103E9000984201D903207047086900F000400028CB
:103EA000F3D00022086940F00100086100BF501CF7
:103EB0000246064B984201D90320ECE7086900F05E
:103EC00001000028F3D100BFE5E70000400D03002A
:103ED00030B54D7801230C7803FA04F2012DD0F8A7
:103EE0003C4816D024EA0242C0F83C28D0F81C28EE
:103EF0000C78A34022EA0342C0F81C28097800EBA2
:103F00004110D0F8001B21F40041C0F8001B002034
:103F100030BD92B29443C0F83C48D0F81C280C78CD
:103F2000A3409BB29A43C0F81C28097800EB4110CB
:103F3000D0F8001921F40041C0F80019E7E710B5E6
:103F4000D0F8041821F00201C0F804180320FCF78F
:103F50008BFD002010BD10B5D0F8041841F002010F
:103F6000C0F804180320FCF77FFD002010BD0000FE
:103F70002DE9F0410D46044600200646DDF8248078
:103F8000079F04EB8001C1F80461401C0F28F8D39F
:103F9000A06B40F40020A063C4F8006ED4F80008C1
:103FA000C4F80008D4F8000840F00300C4F8000882
:103FB0001021204600F07CFA204600F069FAC4F88F
:103FC0001068C4F814684FF0FF30C4F81808C4F83B
:103FD0001C6800214FF09042FF2310E004EB4110D9
:103FE000D0F800C9BCF1000F02DAC0F8002901E0E6
:103FF000C0F80069C0F81069C0F80839491C8D4242
:10400000ECD8002110E004EB4110D0F800CBBCF15B
:10401000000F02DAC0F8002B01E0C0F8006BC0F816
:10402000106BC0F8083B491C8D42ECD8D4F810083E
:1040300020F48070C4F81008A6616FF080406061C1
:10404000A06940F01000A061A06909490843A0617F
:104050001FB1A06940F00800A061B8F1010F03D1C1
:10406000A06904490843A0610020BDE8F081000078
:1040700000383C8004000040816821F0010181602B
:104080000020704710B54C78444B0A7800EB421280
:10409000012C30D0D2F8104B6FF31204C2F8104B41
:1040A0000A7800EB4212D2F8104B1C40C2F8104BB9
:1040B0004A690AB18A684A610A7800EB4212D2F86A
:1040C000103B43F40023C2F8103B0A7800EB421285
:1040D000D2F8103B8C68C4F312042343C2F8103B9F
:1040E000097800EB4110D0F8001B41F00441C0F802
:1040F000001B002010BD4C69002CD2F8104938D0AC
:104100006FF31204C2F810490A7800EB4212D2F899
:1041100010491C40C2F810494B698A68934200D983
:104120004A610A7800EB4212D2F8103943F40023B6
:10413000C2F810390A7800EB4212D2F810394C69F3
:10414000C4F312042343C2F810394A693AB1D0F8D3
:1041500034280C780123A3401A43C0F83428097886
:1041600000EB4110D0F8001941F00441C0F80019EB
:10417000BFE71C40C2F810490A7800EB4212D2F89F
:10418000103943F40023C2F810390A7800EB4212C8
:10419000D2F810396FF31203D5E70000FFFF07E0F4
:1041A0000021C0F8101BD0F8101B41F40021C0F80A
:1041B000101BD0F8101B41F01801C0F8101BD0F8EC
:1041C000101B41F0C041C0F8101B002070474B7815
:1041D0000A7800EB4212012B0BD0D2F8003B23F4FB
:1041E0000013C2F8003BCA78032A17D0022A15D060
:1041F0001DE0D2F8003923F40013C2F80039CA7860
:10420000032A01D0022A12D1097800EB4110D0F81C
:10421000001941F08051C0F8001908E0097800EB5E
:104220004110D0F8001B41F08051C0F8001B002065
:1042300070474B780A7800EB4212012B14D0D2F869
:10424000003B002B05DBD2F8003B23F08043C2F893
:10425000003B097800EB4110D0F8001B41F400113D
:10426000C0F8001B00207047D2F80039002B05DB96
:10427000D2F8003923F08043C2F80039097800EB06
:104280004110D0F8001941F40011C0F80019E9E715
:1042900030B54D786FF06044794B0A7800EB4212EC
:1042A000012D30D0D2F8105B6FF31205C2F8105B0D
:1042B0000A7800EB4212D2F8105B1D40C2F8105B86
:1042C0004A69002A7ED08B681A44521EB2FBF3F270
:1042D00092B20B7800EB4313D3F8105B04EAC244AC
:1042E0002543C3F8105B0B7800EB4313D3F8104B56
:1042F0008D685543C5F312021443C3F8104BCA78B6
:10430000012A75D0B1E04D6965B3D2F810596FF349
:104310001205C2F810590A7800EB4212D2F810596F
:104320001D40C2F810594B698A6813445B1EB3FBE9
:10433000F2F204EAC2430A7800EB4212D2F81049C2
:104340002343C2F810390A7800EB4212D2F8103930
:104350004C69C4F312042343C2F81039CA78012A05
:1043600016D02AE0D2F810491C40C2F810490A7849
:1043700000EB4212D2F8103943F40023C2F810398E
:104380000A7800EB4212D2F810396FF312030FE0F3
:104390000A7800EB4212D2F8103923F0C043C2F879
:1043A00010390A7800EB4212D2F8103943F000536A
:1043B000C2F81039CA78012A0ED04A69EAB1D0F899
:1043C000342800E02CE00C780123A3401A43C0F805
:1043D0003428CA78012A10D1D0F80828D2050A78E2
:1043E00000EB4212D2F8003903D443F0005302E04C
:1043F0002BE043F08053C2F800390A7800EB4212F8
:10440000D2F8003943F00443C2F80039CA78012ACF
:1044100034D18A8A93B20A78C96800F0BFF82DE0D7
:104420000A7800EB4212D2F8103B8C68C4F31204F5
:104430002343C2F8103B0A7800EB4212D2F8103B3B
:1044400043F40023C2F8103B59E7D0F80828D205FE
:104450000A7800EB4212D2F8003B02D443F000533A
:1044600001E043F08053C2F8003B097800EB4110B3
:10447000D0F8001B41F00441C0F8001B002030BD03
:10448000FFFF07E0816841F0010181600020704773
:10449000002110220261054A491C914201D90320E2
:1044A00070470369DB06F7D400207047400D030016
:1044B0000022202343EA811101610549521C8A42EE
:1044C00001D90320704703699B06F7D40020704789
:1044D000400D0300406900F001007047D0F8181843
:1044E000D0F81C08084080B27047D0F81818D0F8EF
:1044F0001C080840000C7047D0F81038D0F8342859
:10450000CA4002F0010243EAC21200EB4110D0F8A7
:1045100008091040704700EB4111D1F8081BD0F892
:10452000140808407047416980690840704710B519
:1045300004460023D21C900804F5805403E022684E
:1045400041F8042B5B1C8342F9D3084610BD10B51B
:10455000C26822F0C042C260012901D021B107E047
:10456000C16841F0005102E0C16841F08041C16082
:104570003220FCF779FA002010BDD0F8002822F490
:10458000FE62C0F80028D0F800284FF4FE6303EA6A
:1045900001110A43C0F800280020704710B500241C
:1045A000DB1C9B0800EB023000F5805003E051F863
:1045B000042B0260641C9C42F9D3002010BDFEE76E
:1045C0000FB4084B10B504A902AA039800F0DEF856
:1045D000044602A9002000F070FC204610BC5DF8E3
:1045E00014FB0000BB4E000802E008C8121F08C1FF
:1045F000002AFAD170477047002001E001C1121F64
:10460000002AFBD1704700002DE9FF5F82B0002136
:10461000DDE90430020DDDF840B0034318D044F664
:104620001050A2F2FF3242431514119801281FD0F6
:10463000A5EB0B00401C5FEA000A4FF000064E4F4E
:10464000DFF83891B046504615D5CAF1000413E0A2
:10465000119801244AA3012801D16FEA0B010298A5
:10466000119AC0E90031C0E9024206B0BDE8F09FEE
:10467000CBF10000DFE704460021404A491842EB35
:104680000450CDE9001012E0E00707D032463B4667
:1046900040464946FBF7E7FF8046894632463B469F
:1046A00010461946FBF7DFFF06460F466410002C44
:1046B000EAD1DDE90401DDE90023BAF1000F06DAF1
:1046C000FBF7D1FF42464B46FBF7CDFF05E0FCF779
:1046D0003CF842464B46FCF738F804460E460022AA
:1046E000284BFCF7B9F803D84FF0FF30014607E03C
:1046F0000022254B20463146FBF70EFFFCF794F8CD
:10470000102409E0002C0ADB0A220023FBF73CFD01
:10471000039B30321A55641E50EA0102F2D1641C28
:10472000039AC4F111031444119A012A03D00122FF
:1047300008430DD10AE0084304D000204FF0110BCC
:10474000119072E7A3EB0B056D1E0DE05B4504DDD8
:104750004FF0000205F1010504E003DA4FF000021A
:10476000A5F10105002AECD002981199C0E90231A7
:10477000C0E9004579E70000000014400000F03F68
:10478000300000000000F0430000E03F2DE9FF4F43
:1047900095B09B468946064600250FE2252877D12D
:1047A00000242746F84A0121059400E0044316F846
:1047B000013F203B01FA03F01042F7D130782A285C
:1047C00011D06FF02F033078A0F13002092A16D8EB
:1047D000059A44F0020402EB820203EB4202104409
:1047E000761C0590EFE759F8042B0592002A03DAAE
:1047F000504244F40054059044F00204761C307892
:104800002E2816D116F8010F44F004042A280DD0E2
:104810006FF02F023078A0F13003092B09D807EB95
:10482000870302EB4303C718761CF3E759F8047BB0
:10483000761C30786C280FD006DC4C2817D06828FE
:104840000DD06A2814D104E0742810D07A280FD132
:104850000DE044F400140AE044F4801401E044F450
:1048600040147278824202D104F58014761C761CC2
:10487000307866280BD013DC582877D009DC002864
:1048800075D04528F6D04628F4D047281AD19DE1A6
:1048900018E0632835D0642879D0652812D195E1D5
:1048A000702873D008DC6728F1D069286FD06E2893
:1048B0000DD06F2806D1B5E073282CD0752875D09F
:1048C000782874D05A46179990476D1C75E1C4F347
:1048D0000250022809D003280DD0D9F8001004286E
:1048E0000DD00D6009F1040967E1D9F80010EA174D
:1048F000C1E90052F6E7D9F800100D80F2E70D701B
:10490000F0E719F8041B8DF8001000208DF8010065
:10491000EA46012003E059F804AB4FF0FF3061078D
:104920004FF0000102D40DE008F101018846B942C0
:104930000FDA8045F8DB1AF808100029F4D108E0F6
:1049400008F1010188468142FADB1AF808100029B3
:10495000F6D105985B46A0EB080721463846179A22
:1049600000F094FA284400EB080507E04DE029E147
:104970000DE01AF8010B5A4617999047B8F1010853
:10498000F7D25B4621463846179A13E142E00A22E5
:104990000092C4F302524FF0000A022A08D059F8DC
:1049A00004CB032A4FEAEC710AD00DE029E02AE09B
:1049B00009F1070121F00702F2E802C1914609E07E
:1049C0000FFA8CFC4FEAEC71042A03D14FFA8CFCED
:1049D0004FEAEC71002907DA0A460021DCF1000CED
:1049E00061EB02012D2202E0220504D52B228DF875
:1049F0000420012203E0E20701D02022F7E79046DD
:104A000059E00A2102E010220DE010214FF0000AC7
:104A100000910BE010224FF0000A44F00404082734
:104A2000009203E008224FF0000A0092C4F3025201
:104A3000022A05D059F804CB0021032A08D009E046
:104A400009F1070121F00702F2E802C1914605E0F1
:104A50001FFA8CFC042A01D10CF0FF0C4FF0000867
:104A6000220728D5702806D0009B83F0100353EA54
:104A70000A0305D00EE040228DF80420012208E050
:104A80005CEA010206D030228DF804208DF8050082
:104A900002229046009B83F0080353EA0A030AD1DE
:104AA0005CEA010201D1620705D530228DF80420AD
:104AB0004FF001087F1E582804D034A003900EA8A0
:104AC00002900DE036A0F9E753466046009AFBF7E6
:104AD0005BFB84460398825C0298401E0290027041
:104AE0005CEA0100F0D1029806A9081A00F1200A38
:104AF000600702D524F4803400E00127574502DD29
:104B0000A7EB0A0000E0002000EB0A0100900598E6
:104B10004144401A0590E00306D45B462146179AAB
:104B2000059800F0B3F90544002706E001A85A46AD
:104B3000C05D179990476D1C7F1C4745F6DBE0036D
:104B40000CD55B462146179A059800F09FF905445D
:104B500004E030205A46179990476D1C0099481E72
:104B600000900029F5DC08E0029802995A46007886
:104B7000491C0291179990476D1CBAF10001AAF1E6
:104B8000010AF1DC65E1000009280100303132330F
:104B90003435363738396162636465660000000079
:104BA0003031323334353637383941424344454663
:104BB0000000000000F058F90544761C3078002809
:104BC0007FF4ECAD19B02846BDE8F08F620700D441
:104BD000062709F1070222F0070CFCE80223E14650
:104BE00003F000485FEA080C02D00FF2702C0DE0D1
:104BF0005FEA045C02D50FF2682C07E05FEAC47C30
:104C000002D00FF2602C01E0AFF2700C4FF0FF38D1
:104C100023F00043CDF850C065280CD006DC4528B1
:104C200009D046281DD047283DD13DE0662818D040
:104C300067287ED138E00021112F01DB112000E030
:104C4000781CCDE9000106A90EA8FFF7DDFCDDE91F
:104C50000F010E9A03910021009207F1010A0491BD
:104C60004DE04FF000400097CDE9011006A90EA8D5
:104C7000FFF7CAFCDDE90F0203920E9B1199002297
:104C8000DDF80CA00093049211B9791C00EB010A25
:104C9000B7EB0A0004D4C0F1FF3007F1010A049019
:104CA000AAEB0700019044E0012F00DA0127002160
:104CB000112F01DD112000E03846CDE9000106A9E1
:104CC0000EA8FFF7A1FCDDE90F010E9A0391002168
:104CD00004910092BA4621070CD40399514500DA99
:104CE0008A46BAF1010F05DD009AAAF10101515C73
:104CF000302908D0B84202DA10F1040F06DA012197
:104D0000CDE9011015E0AAF10101E9E7002805DC71
:104D1000049901440491AAEB000102E0411C5145B1
:104D200000DD8A460499401A401C01904FF0004073
:104D30000290200704D40198504501DBCDF804808F
:104D400000208DF84F0002980DF14F07B0F1004F91
:104D500025D02B200E9002984FF0020800280CDA84
:104D6000404202902D200E9007E00A210298FBF7A6
:104D700077FB3031029007F8011DB8F10001A8F16E
:104D80000108F2DC02980028EFD1791E0E98087015
:104D9000307800F0200040F0450007F8020D12A81E
:104DA000C01B00F107081498007800B1012000EB47
:104DB0000A01019801EBE07105984144401A401E38
:104DC0000590E00306D45B462146179A059800F04B
:104DD0005DF805441498007818B15A461799904721
:104DE0006D1CE00324D55B462146179A059800F018
:104DF0004DF805441CE00498002807DBDDE90301B9
:104E0000884203DD0098405C179901E01799302033
:104E10005A469047049805F10105401C04900198FA
:104E2000401E019004D12E205A46179990476D1CC0
:104E3000BAF10001AAF1010ADDDC05E017F8010B67
:104E40005A46179990476D1CB8F10001A8F1010866
:104E5000F4DC5B462146179A0598ABE62D0000006E
:104E60002B000000200000002DE9F0410446002541
:104E70001E461746880404D405E039462020B04772
:104E80006D1C641EF9D52846BDE8F0812DE9F0417E
:104E9000044600251E469046C80301D5302700E091
:104EA0002027880404D505E041463846B0476D1CEC
:104EB000641EF9D52846BDE8F0810A68531C0B60D2
:104EC0001070704788B0FCF74DF9FDF7B5FEFDF79F
:104ED00041FDFDF777FDFDF795FD124C002564209F
:104EE000FBF7C2FDFDF712FEFDF750FEFDF7EEFCED
:104EF000FDF7F8FC20780028F1D020220AA16846AE
:104F0000FBF783F91D216846FBF796FD0A20FBF7A6
:104F1000ABFD2078462801D0662801D1FDF7FAFEC6
:104F20002570DCE700000020507265737320462076
:104F3000746F207374617274207468652074657373
:104F400074200A0D00000000000020409A9949409A
:104F5000CDCC8C3FCDCC8C3FCDCCAC3F3333A33FBD
:104F6000CDCC2C3F0000A04000000000000000005D
:104F700001020304060708090000000001020304FF
:104F8000A04F000800000020CC0200008A090008A1
:104F90001C510008CC0200205C0E0000F8450008FF
:104FA000110009108CCC9CDCACECBCFC38150D0A53
:104FB00043483020322E3556465047412028504D28
:104FC00049430F1529202D20580C434831203376B2
:104FD000335F5346501B7C332E311C68093220311D
:104FE00076315F5452376C312E311B3A331B995353
:104FF000991C1A341C7F33355F4444521C7A335455
:105000001A351D78083237355F494D581E19106919
:105010001F9F3620565245463C8C302E361E5D373B
:10502000203556181914191388271B5B313B393763
:105030003B34316D4552524F522120437572726597
:105040006E7420766F6C74616765203D1B5B306DFC
:10505000280D17326D4F4B251379351B08A9041AFB
:10506000B5041ADD041309361B0859081A850417FC
:10507000040309041201140202021640830440577B
:10508000260201020301031A1A0313ED091B08E7A4
:10509000041AE30413110A1A082F11821084A24A79
:1050A00004130A0632022A40201C0902435B111C29
:1050B000C032091F1B01020B130524161001052421
:1050C00001100901042402020524061701070582C4
:1050D00003081C10090491320A15070501021A0180
:1050E000072A81070938442A40072A8107112B091A
:1050F00007440A2204440A16FF441335331C08A34C
:1051000032FC123442081ADF0C1A61041A7504C109
:0C5110001A1D281A11041A29041A05049B
:04000005080001519D
:00000001FF
